:100000000C9461000C9489000C9489000C94890074
:100010000C9489000C9489000C9489000C9489003C
:100020000C9489000C9489000C9489000C9489002C
:100030000C9489000C9489000C9489000C9489001C
:100040000C9452040C9489000C94FB030C94D5037B
:100050000C9489000C9489000C9489000C948900FC
:100060000C9489000C9489005A7375744574686502
:10007000726E65745544503A3A626567696E5061B4
:10008000636B657428636F6E73742063686172209C
:100090002A686F73742C2075696E7431365F742012
:1000A000706F7274293B206973206E6F74207375B2
:1000B00070706F727465642120536F7272792100C1
:1000C000A50811241FBECFEFD8E0DEBFCDBF12E0E0
:1000D000A0E0B1E0E6EDFCE102C005900D92A4378E
:1000E000B107D9F723E0A4E7B2E001C01D92AB3617
:1000F000B207E1F710E0C1E6D0E004C02197FE01AD
:100100000E94670CC036D107C9F70E94AA070C9459
:10011000690E0C940000CF92DF92EF92FF920F9342
:100120001F93CF93DF936C017A018B01C0E0D0E085
:10013000CE15DF0581F0D8016D918D01D601ED91CD
:10014000FC910190F081E02DC6010995892B11F0F9
:100150002196EECF7E01C701DF91CF911F910F91C4
:10016000FF90EF90DF90CF900895FC01538D448D68
:10017000252F30E0842F90E0821B930B541710F052
:10018000CF96089501970895FC01918D828D98175F
:1001900061F0828DDF01A80FB11D5D968C91928D6B
:1001A0009F5F9F73928F90E008958FEF9FEF089568
:1001B000FC01918D828D981731F0828DE80FF11D31
:1001C000858D90E008958FEF9FEF0895FC01918D4C
:1001D000228D892F90E0805C9F4F821B91098F7345
:1001E000992708958DE792E00E94E60021E0892B8F
:1001F00009F420E0822F0895FC01848DDF01A80F0F
:10020000B11DA35ABF4F2C91848D90E001968F733E
:100210009927848FA689B7892C93A089B1898C915D
:10022000837080648C93938D848D981306C00288AC
:10023000F389E02D80818F7D80830895EF92FF9276
:100240000F931F93CF93DF93EC0181E0888F9B8DF9
:100250008C8D981305C0E889F989808185FD26C0B9
:10026000F62E0B8D10E00F5F1F4F0F731127E02E3E
:100270008C8DE8120CC00FB607FCFACFE889F9891B
:10028000808185FFF5CFCE010E94FC00F1CF8B8DE0
:10029000FE01E80FF11DE35AFF4FF0829FB7F8947B
:1002A0000B8FEA89FB89808180620AC09FB7F8942E
:1002B000EE89FF896083E889F98980818370806491
:1002C00080839FBF81E090E0DF91CF911F910F91DC
:1002D000FF90EF900895CF93DF93EC01888D8823F2
:1002E000C9F0EA89FB89808185FD05C0A889B989A3
:1002F0008C9186FD0FC00FB607FCF5CF808185FF7E
:10030000F2CFA889B9898C9185FFEDCFCE010E94EB
:10031000FC00E7CFDF91CF91089580E090E0892B3A
:1003200029F00E94F20081110C940000089581E0F0
:10033000089587E08CBF95EE9BBF1ABE8CBF86EEFA
:100340008BBF1ABE089580E090E0089597E09CBFAF
:1003500087EE8BBF8AB79CBF28EE2BBF2AB730E051
:10036000382B9CBF85EE8BBFEAB79CBF86EE8BBF58
:100370009AB7892F90E09E2B821B930B84179507C9
:1003800008F0CA01A9014751584FFB01DB01A80F32
:10039000B91FEA17FB0739F05CBF4BBF6AB761931F
:1003A0004F5F5F4FF6CF280F391F47E04CBF57EE26
:1003B0005BBF3ABF4CBF38EE3BBF2ABF0895CF9317
:1003C000DF931F92CDB7DEB7DC01ED91FC91028C7B
:1003D000F38DE02D41E050E0BE016F5F7F4F099546
:1003E000181619061CF4898190E002C08FEF9FEF68
:1003F0000F90DF91CF910895FC0187E08CBF95EEBF
:100400009BBF3AB78CBF96EE9BBF9AB78CBF27EEC7
:100410002BBF6AB78CBF88EE8BBF2AB71CBE80E1AA
:100420008BBF8AB71CBE4FE04BBF4AB71CBE5EE015
:100430005BBF5AB71CBE7DE07BBF7AB7708B518B18
:10044000428B838B1CBE81E18BBF8AB71CBE42E10D
:100450004BBF4AB750E0582B558B448B892F90E007
:10046000932B30E0362B821B930B08951CBE83E147
:100470008BBF2AB71CBE84E18BBF9AB7892F90E04F
:10048000922BFB019C012B5E3F4FDB01A40FB51F9C
:10049000EA17FB0739F061913CBF2BBF6ABF2F5FA2
:1004A0003F4FF6CF840F951F1CBE23E12BBF9ABF91
:1004B0001CBE94E19BBF8ABF80E090E00895CF937B
:1004C000DF931F92CDB7DEB76983DC01ED91FC911C
:1004D0000280F381E02D41E050E0BE016F5F7F4F6D
:1004E00009950F90DF91CF9108951CBE1BBE8FEF31
:1004F0008ABF1CBE1BBE82E08ABF80E090E00895E8
:10050000FB0132812381948185811CBE1BBE61E089
:100510006ABF1CBE6DE06BBF3ABF1CBE3EE03BBF76
:100520002ABF1CBE2FE02BBF9ABF1CBE90E19BBF11
:100530008ABF1CBE81E18BBF5ABF1CBE82E18BBF4C
:100540004ABF81E090E008950895DC01ED91FC91AF
:10055000008CF18DE02D09941CBE8BE08BBF7ABF1F
:100560001CBE8CE08BBF6ABF1CBE1BBE83E08ABF73
:1005700081E00895FC018489958908952CE831E093
:10058000FC0131832083FB01408951896289738991
:10059000FC0142835383648375830895089580E04A
:1005A00090E00895DC01ED91FC91028CF38DE02D3B
:1005B00009940F931F93CF93DF93EC018881998166
:1005C000009729F02A813B812617370788F48B0191
:1005D0006F5F7F4F0E948E0D009761F09983888333
:1005E0001B830A832C813D81232B11F4FC01108293
:1005F00081E001C080E0DF91CF911F910F910895BC
:10060000CF93DF93EC0188819981009711F00E94CC
:10061000050D198218821D821C821B821A82DF91AD
:10062000CF9108956115710579F0FB0101900020CB
:10063000E9F73197AF01461B570BDC01ED91FC91B7
:100640000280F381E02D099480E090E008958F927C
:100650009F92AF92BF92EF92FF920F931F93CF930F
:10066000DF93CDB7DEB7A1970FB6F894DEBF0FBE0C
:10067000CDBF7C01FA01CB0119A2223008F42AE097
:100680008E010F5D1F4F822E912CA12CB12CBF012A
:10069000A50194010E94900BF901CA0101501109B2
:1006A0006A3014F4605D01C0695CD8016C93232B3F
:1006B000242B252B61F7B801C7010E941203A196D4
:1006C0000FB6F894DEBF0FBECDBFDF91CF911F9163
:1006D0000F91FF90EF90BF90AF909F908F900895F3
:1006E0008F929F92AF92BF92CF92DF92EF92FF9242
:1006F0000F931F93CF93DF937C01EB016C0182E09A
:10070000C80ED11C4701E5E08E0E911C00E010E000
:10071000F60141916F0150E060E070E02AE0CE0107
:100720000E9427035C01E881F9810190F081E02DAE
:100730006EE2CE0109958A0D9B1D080F191F8C14BE
:100740009D0431F7F701458150E060E070E02AE058
:10075000CE010E942703800F911FDF91CF911F913F
:100760000F91FF90EF90DF90CF90BF90AF909F9050
:100770008F900895CF93DF93C8E6D0E0FE01649197
:10078000662339F08DE792E00E941E012196892BA5
:10079000A9F764E971E08DE792E00E941203989551
:1007A00080E090E0DF91CF9108951F920F920FB6F5
:1007B0000F9211242F933F934F935F936F937F93E7
:1007C0008F939F93AF93BF93EF93FF938DE792E047
:1007D0000E94FC00FF91EF91BF91AF919F918F918B
:1007E0007F916F915F914F913F912F910F900FBE2D
:1007F0000F901F9018951F920F920FB60F92112411
:100800002F938F939F93EF93FF93E0918D02F0913D
:100810008E028081E0919302F091940282FD12C0D9
:100820009081809196028F5F8F732091970282173B
:1008300051F0E0919602F0E0E358FD4F958F8093E0
:10084000960201C08081FF91EF919F918F912F912E
:100850000F900FBE0F901F9018953FB7F89480919E
:10086000790290917A02A0917B02B0917C0226B528
:10087000A89B05C02F3F19F00196A11DB11D3FBFD8
:10088000BA2FA92F982F8827820F911DA11DB11D66
:10089000BC01CD0142E0660F771F881F991F4A9562
:1008A000D1F708951F920F920FB60F9211242F9334
:1008B0003F938F939F93AF93BF93809175029091D5
:1008C0007602A0917702B09178023091740223E011
:1008D000230F2D3720F40196A11DB11D05C026E878
:1008E000230F0296A11DB11D2093740280937502FF
:1008F00090937602A0937702B09378028091790268
:1009000090917A02A0917B02B0917C020196A11D88
:10091000B11D8093790290937A02A0937B02B093E9
:100920007C02BF91AF919F918F913F912F910F903A
:100930000FBE0F901F9018952F923F924F925F928B
:100940006F927F928F929F92AF92BF92CF92DF92DF
:10095000EF92FF920F931F93CF93DF93CDB7DEB744
:10096000C851D4400FB6F894DEBF0FBECDBF1C01F6
:10097000E0918D02F0918E0212E01083E0918902E5
:10098000F0918A021082E0918B02F0918C0280E15A
:10099000808310929502E0919102F091920286E09C
:1009A0008083E0918F02F09190028081806180834A
:1009B000E0918F02F0919002808188608083E091C5
:1009C0008F02F0919002808180688083E0918F0295
:1009D000F091900280818F7D808388E080931C035A
:1009E00080931D0380931E0380931F0363E973E1CB
:1009F00082E293E00E94AC021D8281E090E0A0E0E0
:100A0000B0E089839A83AB83BC831E83F10180812C
:100A10008F8386818887C1010296A101425F5F4F63
:100A200008E010E0FC013297208131812115310569
:100A300019F02130310571F4A1E0B0E0AC0FBD1F19
:100A4000A00FB11F24E0FC0101900D922A95E1F75F
:100A50000C5F1F4F06968417950721F787E991E0F1
:100A60000E944C0783EB91E00E94A50780E090E094
:100A70000E94910782EC91E00E94A50781E090E03E
:100A80000E94910787EC91E00E94A50782E090E028
:100A90000E949107812C912C54018AED91E00E94D3
:100AA000A507C501B4010E945F0781EE91E00E9495
:100AB000A507F101808191810E949107F101808158
:100AC0009181009719F00197A9F0D2C08AED91E0C9
:100AD0000E94A507C501B4010E945F0789EE91E05D
:100AE0000E94A507F10162817381848195810E9432
:100AF0005F07B8C08AED91E00E94A507C501B40167
:100B00000E945F0789EE91E00E94A507F101C28073
:100B1000D380E480F580A7019601C701B6010E9449
:100B2000620C882319F062EF71E01AC026013701C8
:100B3000E89477F82FEF3FEF4FE75FE7C301B2018B
:100B40000E94620C811111C02FEF3FEF4FE75FE76A
:100B5000C301B2010E94030A18163CF466EF71E06B
:100B60008DE792E00E9412037DC02FEF3FEF4FE729
:100B70005FE4C701B6010E945D0C18161CF46AEF11
:100B800071E0EECF2FEF3FEF4FE75FECC701B6010B
:100B90000E94030A87FDF3CF20E030E0A901C701DE
:100BA000B6010E94030A87FF09C06DE28DE792E05B
:100BB0000E941E01F7FAF094F7F8F0942AE037ED5E
:100BC00043EA5BE3C701B6010E94C20B2B013C0163
:100BD0000E942E0C6B017C010E94080A9B01AC0153
:100BE000C301B2010E94C10B2B013C012AE0B701F5
:100BF000A6018DE792E00E9427036EE28DE792E066
:100C00000E941E0120E030E040E251E4C301B20145
:100C10000E94690A2B013C010E942E0C6B01E12C01
:100C2000F12C2AE0B701A6018DE792E00E9427038C
:100C3000C701B6010E94080A9B01AC01C301B201C1
:100C40000E94C10B20E030E040E251E40E94690ABA
:100C50000E942E0CAB0160E070E02AE08DE792E08C
:100C60000E94270364E971E08DE792E00E9412037D
:100C7000FFEF8F1A9F0AAF0ABF0A86E0280E311CC9
:100C800092E089169104A104B10409F006CF8EEF19
:100C900091E00E944C07FE0131966F013F01CE01A9
:100CA0008F5F9B4F7C01C3018C199D0980179107B1
:100CB0000CF0A0C0F30181913F01CD5EDB4F1982A2
:100CC0001882C351D440CB5EDB4F19821882C551C4
:100CD000D440C95EDB4F19821882C751D44040E12D
:100CE000B701082E000C990B0E94CE09F701019064
:100CF0000020E9F731975F01AE18BF08B501CE01BA
:100D00008D5E9B4F0E94D902811106C0CE018D5E7F
:100D10009B4F0E9400030FC0C95EDB4FB982A882BF
:100D2000C751D440B701CD5EDB4F88819981C35153
:100D3000D4400E94620EF701118210821382128247
:100D400015821482CD5EDB4FA880B980C351D44098
:100D5000A114B104C1F0C95EDB4F88809980C751EE
:100D6000D440B401C7010E94D902811104C0C70157
:100D70000E94000308C0F70195828482B50180813A
:100D800091810E94620EF701A480B580FFEFAF1A37
:100D9000BF0AB501C7010E94D902882309F45AC0CD
:100DA000F701208131818481958165EC71E0820FAA
:100DB000931F0E94620EF701B582A482F70144815D
:100DC0005581608171818DE792E00E948B00F7016F
:100DD00080819181009711F00E94050DCD5EDB4F5F
:100DE00088819981C351D440009709F45CCF0E9457
:100DF000050D59CF64E971E08DE792E00E9412037E
:100E00008CE891E0F7019183808380913F0390917A
:100E10004003A0914103B091420382839383A48352
:100E2000B58343E953E1B70182E293E00E94800277
:100E3000892B59F0A801B60182E293E00E943602A4
:100E400082E293E00E94750209C083E192E00E9471
:100E50004C0704C0C7010E940003B0CF80E090E0BF
:100E6000C85EDB4F0FB6F894DEBF0FBECDBFDF917B
:100E7000CF911F910F91FF90EF90DF90CF90BF9097
:100E8000AF909F908F907F906F905F904F903F902A
:100E90002F9008950E94540ECF93DF93BC018DE7ED
:100EA00092E00E941203EC0164E971E08DE792E0A8
:100EB0000E9412038C0F9D1FDF91CF910895CF9256
:100EC000DF92EF92FF92CF93DF93AB01BC0177FFEC
:100ED0001DC06A017B016DE28DE792E00E941E0158
:100EE000EC0144275527BA014C195D096E097F09A9
:100EF0002AE08DE792E00E9427038C0F9D1FDF916F
:100F0000CF91FF90EF90DF90CF9008952AE08DE78A
:100F100092E0DF91CF91FF90EF90DF90CF900C9413
:100F20002703CF93DF93BC01990F880B990B0E9485
:100F30005F07EC0164E971E08DE792E00E94120323
:100F40008C0F9D1FDF91CF910895BC018DE792E03A
:100F50000C941203CF93DF93CDB7DEB72C970FB667
:100F6000F894DEBF0FBECDBF789484B5826084BD97
:100F700084B5816084BD85B5826085BD85B581609D
:100F800085BD80916E00816080936E00109281001B
:100F900080918100826080938100809181008160D6
:100FA0008093810080918000816080938000809197
:100FB000B10084608093B1008091B0008160809323
:100FC000B00080917A00846080937A0080917A00EA
:100FD000826080937A0080917A00816080937A00A9
:100FE00080917A00806880937A001092C10080E43A
:100FF00080937C0080917A00806480937A00809155
:101000007A0086FDFCCF6091780070917900072E00
:10101000000C880B990B611571058105910511F084
:101020000E94C509E0918D02F0918E0282E08083DA
:10103000E0918902F0918A021082E0918B02F09196
:101040008C028FEC808310929502E0919102F091D6
:10105000920286E08083E0918F02F091900280817D
:1010600080618083E0918F02F0919002808188609E
:101070008083E0918F02F09190028081806880836C
:10108000E0918F02F091900280818F7D8083412CCE
:10109000512C320185E292E00E944C078CE492E0F0
:1010A0000E944C0788E592E00E94A50780E090E04E
:1010B0000E94910780E692E00E94A507C12CD12CE6
:1010C0007601C701B6010E945F0764E971E08DE710
:1010D00092E00E9412031A821982CB82DC82ED8296
:1010E000FE8218861F8249865A866B867C860E94FD
:1010F0002D044B015C0188EBC82E8BE0D82EE12C2F
:10110000F12C0E942D04DC01CB0188199909AA0950
:10111000BB09883E9340A105B10598F321E0C21AAE
:10112000D108E108F10888EE880E83E0981EA11C22
:10113000B11CC114D104E104F10419F7CE010196E8
:101140000E949C040E948D01A5CFEDE7F2E013827E
:10115000128248EE53E060E070E04483558366837A
:1011600077838EE091E09183808385EC90E0958792
:10117000848784EC90E09787868780EC90E0918B61
:10118000808B81EC90E0938B828B82EC90E0958B4E
:10119000848B86EC90E0978B868B118E128E138E4B
:1011A000148EE3E4F3E08CE891E091838083128273
:1011B000138214821582E9E4F3E091838083128222
:1011C000138214821582EAE1F3E091838083128214
:1011D000138214821582EFE4F3E0918380831282FC
:1011E000138214821582E5E5F3E0918380831282F5
:1011F000138214821582EBE5F3E0918380831282DF
:10120000138214821582EDE3F3E09183808320EC56
:10121000228328EA238322E3248326EB2583E2E248
:10122000F3E013821282448355836683778324E636
:1012300031E03183208397878687108A118A128A4A
:10124000138A24E0208FE1E6F3E091838083128209
:1012500013821482158208958F929F92AF92BF924B
:10126000CF92DF92EF92FF92CF93DF93EC016881F0
:1012700079818A819B81611571058105910521F430
:1012800064E279ED8BE597E02DE133EF41E050E04A
:101290000E94270B49015A019B01AC01A7EAB1E466
:1012A0000E94460B6B017C01ACEEB4EFA5019401EA
:1012B0000E94540BDC01CB018C0D9D1DAE1DBF1D8A
:1012C000B7FF03C00197A109B04888839983AA8317
:1012D000BB83BC01CD019F77DF91CF91FF90EF9051
:1012E000DF90CF90BF90AF909F908F9008958F9296
:1012F0009F92AF92BF92CF92DF92EF92FF92609156
:10130000000170910101809102019091030161152A
:1013100071058105910521F464E279ED8BE597E093
:101320002DE133EF41E050E00E94270B49015A01C3
:101330009B01AC01A7EAB1E40E94460B6B017C0162
:10134000ACEEB4EFA50194010E94540BDC01CB017B
:101350008C0D9D1DAE1DBF1DB7FF03C00197A109D8
:10136000B0488093000190930101A0930201B093D3
:101370000301BC01CD019F77FF90EF90DF90CF90EC
:10138000BF90AF909F908F900895609300017093ED
:10139000010180930201909303010895BB274A3015
:1013A00031F4992322F4BDE2909581959F4F0C94DE
:1013B000DA09BB27FB015527AA27880F991FAA1F07
:1013C000A41710F0A41B83955051B9F7A05DAA3360
:1013D00008F0A95DA193009779F7B111B19311922B
:1013E000CB010C94F309DC01FC01672F7191772389
:1013F000E1F7329704C07C916D9370836291AE17D0
:10140000BF07C8F308950E94450A08F481E00895D3
:10141000E89409C097FB3EF490958095709561958E
:101420007F4F8F4F9F4F9923A9F0F92F96E9BB2744
:101430009395F695879577956795B795F111F8CFC0
:10144000FAF4BB0F11F460FF1BC06F5F7F4F8F4F2B
:101450009F4F16C0882311F096E911C0772321F021
:101460009EE8872F762F05C0662371F096E8862FB9
:1014700070E060E02AF09A95660F771F881FDAF710
:10148000880F9695879597F90895990F0008550F3D
:10149000AA0BE0E8FEEF16161706E807F907C0F0FA
:1014A00012161306E407F50798F0621B730B840B02
:1014B000950B39F40A2661F0232B242B252B21F4DC
:1014C00008950A2609F4A140A6958FEF811D811D7C
:1014D00008950E947C0A0C94ED0A0E94DF0A38F0FD
:1014E0000E94E60A20F0952311F00C94D60A0C9481
:1014F000DC0A11240C94210B0E94FE0A70F3959FC4
:10150000C1F3950F50E0551F629FF001729FBB27FA
:10151000F00DB11D639FAA27F00DB11DAA1F649F96
:101520006627B00DA11D661F829F2227B00DA11D49
:10153000621F739FB00DA11D621F839FA00D611DCF
:10154000221F749F3327A00D611D231F849F600DF0
:10155000211D822F762F6A2F11249F5750409AF019
:10156000F1F088234AF0EE0FFF1FBB1F661F771FA5
:10157000881F91505040A9F79E3F510580F00C9470
:10158000D60A0C94210B5F3FE4F3983ED4F3869582
:1015900077956795B795F795E7959F5FC1F7FE2B10
:1015A000880F911D9695879597F9089597F99F67EC
:1015B00080E870E060E008959FEF80EC08950024DB
:1015C0000A941616170618060906089500240A94A8
:1015D00012161306140605060895092E0394000C2E
:1015E00011F4882352F0BB0F40F4BF2B11F460FFBD
:1015F00004C06F5F7F4F8F4F9F4F089557FD9058E6
:10160000440F551F59F05F3F71F04795880F97FBC6
:10161000991F61F09F3F79F0879508951216130680
:101620001406551FF2CF4695F1DF08C016161706AF
:101630001806991FF1CF86957105610508940895E4
:10164000E894BB2766277727CB0197F90895052EE5
:1016500097FB1EF400940E943E0B57FD07D00E949A
:10166000900B07FC03D04EF40C943E0B5095409524
:10167000309521953F4F4F4F5F4F0895909580953E
:10168000709561957F4F8F4F9F4F08950E94B20BC9
:10169000A59F900DB49F900DA49F800D911D1124C6
:1016A0000895B7FF0C94460B0E94460B821B930BC8
:1016B00008952F923F924F925F926F927F928F92F6
:1016C0009F92AF92BF92CF92DF92EF92FF920F93D1
:1016D0001F93CF93DF93CDB7DEB7CA1BDB0B0FB6DB
:1016E000F894DEBF0FBECDBF09942A883988488898
:1016F0005F846E847D848C849B84AA84B984C8842E
:10170000DF80EE80FD800C811B81AA81B981CE0F24
:10171000D11D0FB6F894DEBF0FBECDBFED01089509
:10172000A1E21A2EAA1BBB1BFD010DC0AA1FBB1FE5
:10173000EE1FFF1FA217B307E407F50720F0A21B57
:10174000B30BE40BF50B661F771F881F991F1A94C4
:1017500069F760957095809590959B01AC01BD01EE
:10176000CF010895A29FB001B39FC001A39F700D48
:10177000811D1124911DB29F700D811D1124911D99
:1017800008955058BB27AA270E94D90B0C94ED0A44
:101790000E94DF0A38F00E94E60A20F039F49F3FE9
:1017A00019F426F40C94DC0A0EF4E095E7FB0C9493
:1017B000D60AE92F0E94FE0A58F3BA176207730788
:1017C0008407950720F079F4A6F50C94200B0EF40D
:1017D000E0950B2EBA2FA02D0B01B90190010C0141
:1017E000CA01A0011124FF27591B99F0593F50F459
:1017F000503E68F11A16F040A22F232F342F4427B1
:10180000585FF3CF469537952795A795F0405395A8
:10181000C9F77EF41F16BA0B620B730B840BBAF078
:101820009150A1F0FF0FBB1F661F771F881FC2F7E3
:101830000EC0BA0F621F731F841F48F487957795F7
:101840006795B795F7959E3F08F0B0CF9395880FB1
:1018500008F09927EE0F9795879508950E94060B3B
:1018600088F09F5798F0B92F9927B751B0F0E1F061
:10187000660F771F881F991F1AF0BA95C9F714C011
:10188000B13091F00E94200BB1E008950C94200B30
:10189000672F782F8827B85F39F0B93FCCF386954A
:1018A00077956795B395D9F73EF4909580957095A7
:1018B00061957F4F8F4F9F4F08950E94450A08F40E
:1018C0008FEF08950E94450A880B990B0895EE0F3B
:1018D000FF1F0590F491E02D09940F931F93CF9370
:1018E000DF938230910510F482E090E0E09169038B
:1018F000F0916A0320E030E0A0E0B0E0309719F109
:10190000408151810281138148175907C8F084171B
:10191000950769F4109731F012960C93129713966D
:101920001C9327C00093690310936A0322C02115FA
:10193000310519F04217530718F49A01BD01EF0160
:10194000DF01F801DBCF21153105F9F0281B390B38
:101950002430310580F48A819B816115710521F065
:10196000FB019383828304C090936A03809369038D
:10197000FE01329644C0FE01E20FF31F8193919362
:1019800022503109398328833AC02091670330916E
:101990006803232B41F42091060130910701309315
:1019A00068032093670320910401309105012115FC
:1019B000310541F42DB73EB740910801509109011E
:1019C000241B350BE0916703F0916803E217F307DE
:1019D000A0F42E1B3F0B2817390778F0AC014E5F9F
:1019E0005F4F2417350748F04E0F5F1F5093680371
:1019F000409367038193919302C0E0E0F0E0CF0150
:101A0000DF91CF911F910F910895CF93DF930097AE
:101A100009F481C0FC01329713821282A0916903FC
:101A2000B0916A03109781F420813181820F931F56
:101A300020916703309168032817390751F5F09317
:101A40006803E093670367C0ED0120E030E0CE1744
:101A5000DF0740F44A815B819E0141155105F1F099
:101A6000EA01F5CFD383C28340815181840F951F52
:101A7000C817D90759F488819981840F951F029658
:101A8000918380838A819B81938382832115310591
:101A900029F4F0936A03E09369033DC0E901FB83F5
:101AA000EA8349915991C40FD51FEC17FD0761F4E2
:101AB00080819181840F951F0296E9019983888323
:101AC000828193819B838A83E0E0F0E012968D917E
:101AD0009C911397009719F0FD01DC01F7CF8D91D0
:101AE0009C9111979D012E5F3F4F820F931F209174
:101AF0006703309168032817390769F4309729F490
:101B000010926A031092690302C013821282B0938A
:101B10006803A0936703DF91CF910895A0E0B0E040
:101B2000E4E9FDE00C945D0BEC01009721F4CB019E
:101B30000E946D0CB4C0FC01E60FF71F9C012250FF
:101B40003109E217F30708F4A8C0D9010D911C91DF
:101B5000119706171707B0F00530110508F49BC060
:101B6000C80104978617970708F495C00250110919
:101B7000061B170B019311936D937C93CF010E9469
:101B8000050D89C05B01A01AB10A4C01800E911E9F
:101B9000A0916903B0916A03612C712CE12CF12CA6
:101BA000109709F446C08D919C911197A815B9051D
:101BB000B1F56C0142E0C40ED11CCA14DB0478F10B
:101BC0004C018A189B08640142E0C40ED11C129695
:101BD000BC9012971396AC91B5E0CB16D10440F0AF
:101BE000B282A38391828082D9016D937C9309C0D4
:101BF0000E5F1F4F800F911FF90191838083EB2DA2
:101C0000FA2FE114F10431F0D7011396FC93EE930F
:101C1000129741C0F0936A03E09369033CC06816D1
:101C2000790608F43C017D0112960D90BC91A02D1F
:101C3000B7CF809167039091680388169906E1F405
:101C400066167706C8F4809104019091050100970B
:101C500041F48DB79EB74091080150910901841B52
:101C6000950BE817F907C8F4F0936803E09367034E
:101C7000F901718360830FC0CB010E946D0C7C0160
:101C8000009759F0A801BE010E94590ECE010E9492
:101C9000050DC70104C0CE0102C080E090E0CDB7C1
:101CA000DEB7EEE00C94790B81E090E0F8940C94B0
:101CB000690EFB01DC0102C001900D9241505040C1
:101CC000D8F70895FB01DC0101900D920020E1F7A7
:061CD0000895F894FFCF17
:101CD6000100000000006B032000000000001E0150
:101CE6008B00B5006B01E600C400D80000000000C0
:101CF6004A078B00CF02CE024A074A074A0700006E
:101D060000004A078B00CF02CE02000000004A07FF
:101D16004A07CF024A074A074A074A074A074A07B5
:101D26004A074A074A074A074A074A074A074A0725
:101D3600000000005F023602CF029901A502DF0112
:101D4600A301AC02A4028002BA037502FC01A6013B
:101D5600D202BE02BA029701000000007003000022
:101D660000004A070D0A000A2D2D2D2D4D657373AF
:101D76006167652D417474726962757465732D2D82
:101D86002D2D004D65737361676520547970653A32
:101D9600200049443A20004E756D626572206F66D8
:101DA600206669656C64733A20004669656C642038
:101DB6000020747970653A20002076616C75653A6A
:101DC60020006E616E00696E66006F766600414C9B
:101DD60050204D65737361676520436F6E74656E41
:101DE600743A00436F6E6E656374696F6E20666148
:101DF600696C6564005F5F5F5F5F5F5F5F5F5F5F2A
:101E06005F5F5F5F5F5F5F5F5F5F5F5F5F5F5F5FDC
:101E16005F5F5F5F5F5F5F5F5F5F5F0050727A6506
:101E260064207473696E70000A547970653A2000F4
:101E36000A446F776E6C6F616465642044617461F7
:041E46003A2000003E
:00000001FF
